:1000000045C0000060C000005EC000005CC0000091
:100010005AC0000058C0000056C0000054C0000084
:1000200052C0000050C000004EC000004CC0000094
:100030004AC0000086C0000046C0000044C0000066
:1000400042C0000040C000003EC000003CC00000B4
:100050003AC0000038C0000036C0000034C00000C4
:1000600032C0000030C000002EC000002CC00000D4
:100070002AC0000028C0000026C0000024C00000E4
:1000800022C0000020C000001EC0000011241FBEBE
:10009000CFEFD0E4DEBFCDBF11E0A0E0B1E0E0E9FA
:1000A000F2E000E00BBF02C007900D92A430B10750
:1000B000D9F721E0A4E0B1E001C01D92AE30B20753
:1000C000E1F7D1D0E3C09CCF80E484B98CBD089522
:1000D0008EB580930C010895609300017093010127
:1000E00080930201909303016093060170930701CE
:1000F000809308019093090108958BE0809381001B
:100100008DE790E0909389008093880082E080934F
:100110006F001092850010928400809100019091F0
:100120000101A0910201B091030180930601909317
:100130000701A0930801B09309018FB780688FBFB2
:1001400008951F920F920FB60F9211248F939F93D1
:10015000AF93BF938091060190910701A091080190
:10016000B09109010197A109B1098093060190930B
:100170000701A0930801B0930901892B8A2B8B2BCF
:1001800099F481E080930A0180910001909101012E
:10019000A0910201B09103018093060190930701A1
:1001A000A0930801B0930901BF91AF919F918F91E6
:1001B0000F900FBE0F901F90189580910B0181300A
:1001C00071F028F08230B9F0833051F13EC0809157
:1001D0000C01813009F042C080930B0141C0809135
:1001E0000C01823019F480930B0132C08330C1F5C9
:1001F00080930B0130C080910401909105018E31F4
:10020000910540F081E080930B011092050110925E
:10021000040126C00196909305018093040118C043
:1002200080910401909105018E31910540F081E0AB
:1002300080930B01109205011092040111C00196E8
:10024000909305018093040106C010920B0106C033
:1002500081E082B9089582E082B9089512B80895C4
:1002600083E082B908958FEF81B912B810920B0123
:1002700062E370E080E090E02FDF3FDF25DF28DFE2
:100280009CDF80910A018823E1F3F9CFF894FFCF36
:040290000100000069
:00000001FF
